{
  "contractName": "Vote",
  "abi": [
    {
      "inputs": [],
      "stateMutability": "nonpayable",
      "type": "constructor"
    },
    {
      "inputs": [],
      "name": "winner",
      "outputs": [
        {
          "internalType": "address",
          "name": "",
          "type": "address"
        }
      ],
      "stateMutability": "view",
      "type": "function",
      "constant": true
    },
    {
      "inputs": [
        {
          "internalType": "string",
          "name": "_name",
          "type": "string"
        },
        {
          "internalType": "uint256",
          "name": "_age",
          "type": "uint256"
        },
        {
          "internalType": "string",
          "name": "_gender",
          "type": "string"
        }
      ],
      "name": "voterRegister",
      "outputs": [
        {
          "internalType": "bool",
          "name": "",
          "type": "bool"
        }
      ],
      "stateMutability": "nonpayable",
      "type": "function"
    },
    {
      "inputs": [
        {
          "internalType": "uint256",
          "name": "_voterId",
          "type": "uint256"
        },
        {
          "internalType": "uint256",
          "name": "_id",
          "type": "uint256"
        }
      ],
      "name": "vote",
      "outputs": [],
      "stateMutability": "nonpayable",
      "type": "function"
    },
    {
      "inputs": [
        {
          "internalType": "string",
          "name": "_name",
          "type": "string"
        },
        {
          "internalType": "string",
          "name": "_party",
          "type": "string"
        },
        {
          "internalType": "uint256",
          "name": "_age",
          "type": "uint256"
        },
        {
          "internalType": "string",
          "name": "_gender",
          "type": "string"
        }
      ],
      "name": "candidateRegister",
      "outputs": [],
      "stateMutability": "nonpayable",
      "type": "function"
    },
    {
      "inputs": [],
      "name": "result",
      "outputs": [],
      "stateMutability": "nonpayable",
      "type": "function"
    },
    {
      "inputs": [],
      "name": "candidateList",
      "outputs": [
        {
          "components": [
            {
              "internalType": "string",
              "name": "name",
              "type": "string"
            },
            {
              "internalType": "string",
              "name": "party",
              "type": "string"
            },
            {
              "internalType": "uint256",
              "name": "age",
              "type": "uint256"
            },
            {
              "internalType": "string",
              "name": "gender",
              "type": "string"
            },
            {
              "internalType": "uint256",
              "name": "candidateId",
              "type": "uint256"
            },
            {
              "internalType": "address",
              "name": "candidateAddress",
              "type": "address"
            },
            {
              "internalType": "uint256",
              "name": "votes",
              "type": "uint256"
            }
          ],
          "internalType": "struct Vote.Candidate[]",
          "name": "",
          "type": "tuple[]"
        }
      ],
      "stateMutability": "view",
      "type": "function",
      "constant": true
    },
    {
      "inputs": [],
      "name": "voterList",
      "outputs": [
        {
          "components": [
            {
              "internalType": "string",
              "name": "name",
              "type": "string"
            },
            {
              "internalType": "uint256",
              "name": "age",
              "type": "uint256"
            },
            {
              "internalType": "uint256",
              "name": "voterId",
              "type": "uint256"
            },
            {
              "internalType": "string",
              "name": "gender",
              "type": "string"
            },
            {
              "internalType": "uint256",
              "name": "voteCandidateId",
              "type": "uint256"
            },
            {
              "internalType": "address",
              "name": "voterAddress",
              "type": "address"
            }
          ],
          "internalType": "struct Vote.Voter[]",
          "name": "",
          "type": "tuple[]"
        }
      ],
      "stateMutability": "view",
      "type": "function",
      "constant": true
    },
    {
      "inputs": [
        {
          "internalType": "uint256",
          "name": "_startTime",
          "type": "uint256"
        },
        {
          "internalType": "uint256",
          "name": "_endTime",
          "type": "uint256"
        }
      ],
      "name": "voteTime",
      "outputs": [],
      "stateMutability": "nonpayable",
      "type": "function"
    },
    {
      "inputs": [],
      "name": "votingStatus",
      "outputs": [
        {
          "internalType": "string",
          "name": "",
          "type": "string"
        }
      ],
      "stateMutability": "view",
      "type": "function",
      "constant": true
    },
    {
      "inputs": [],
      "name": "emergency",
      "outputs": [],
      "stateMutability": "nonpayable",
      "type": "function"
    },
    {
      "inputs": [],
      "name": "freeEmergency",
      "outputs": [],
      "stateMutability": "nonpayable",
      "type": "function"
    }
  ],
  "bytecode": "0x6080604052600160025560016003556001600a60006101000a81548160ff02191690831515021790555034801561003557600080fd5b50336000806101000a81548173ffffffffffffffffffffffffffffffffffffffff021916908373ffffffffffffffffffffffffffffffffffffffff16021790555061294b806100856000396000f3fe608060405234801561001057600080fd5b50600436106100a95760003560e01c806365ca2be31161007157806365ca2be31461011c57806393e5fed214610138578063b384abef14610168578063caa6fea414610184578063cf5ce2e71461018e578063dfbf53ae146101aa576100a9565b806319f41a40146100ae57806324089918146100cc578063322a02d7146100ea578063498ea441146100f45780636537214714610112575b600080fd5b6100b66101c8565b6040516100c3919061190b565b60405180910390f35b6100d46102c2565b6040516100e19190611b23565b60405180910390f35b6100f2610536565b005b6100fc61062d565b6040516101099190611cb1565b60405180910390f35b61011a610933565b005b61013660048036038101906101319190611d09565b610bda565b005b610152600480360381019061014d9190611dae565b610cad565b60405161015f9190611e5e565b60405180910390f35b610182600480360381019061017d9190611d09565b610f88565b005b61018c6112d8565b005b6101a860048036038101906101a39190611e79565b61138a565b005b6101b261170a565b6040516101bf9190611f51565b60405180910390f35b6060600060045403610211576040518060400160405280600b81526020017f4e6f74205374617274656400000000000000000000000000000000000000000081525090506102bf565b600060045414158015610225575042600554115b8015610244575060001515600a60009054906101000a900460ff161515145b15610286576040518060400160405280600b81526020017f496e2070726f677265737300000000000000000000000000000000000000000081525090506102bf565b6040518060400160405280600581526020017f456e64656400000000000000000000000000000000000000000000000000000081525090505b90565b6060600060016002546102d59190611f9b565b67ffffffffffffffff8111156102ee576102ed611fcf565b5b60405190808252806020026020018201604052801561032757816020015b610314611730565b81526020019060019003908161030c5790505b5090506000600190505b60025481101561052e57600860008281526020019081526020016000206040518060c00160405290816000820180546103699061202d565b80601f01602080910402602001604051908101604052809291908181526020018280546103959061202d565b80156103e25780601f106103b7576101008083540402835291602001916103e2565b820191906000526020600020905b8154815290600101906020018083116103c557829003601f168201915b50505050508152602001600182015481526020016002820154815260200160038201805461040f9061202d565b80601f016020809104026020016040519081016040528092919081815260200182805461043b9061202d565b80156104885780601f1061045d57610100808354040283529160200191610488565b820191906000526020600020905b81548152906001019060200180831161046b57829003601f168201915b50505050508152602001600482015481526020016005820160009054906101000a900473ffffffffffffffffffffffffffffffffffffffff1673ffffffffffffffffffffffffffffffffffffffff1673ffffffffffffffffffffffffffffffffffffffff1681525050826001836104ff9190611f9b565b815181106105105761050f61205e565b5b602002602001018190525080806105269061208d565b915050610331565b508091505090565b60008054906101000a900473ffffffffffffffffffffffffffffffffffffffff1673ffffffffffffffffffffffffffffffffffffffff163373ffffffffffffffffffffffffffffffffffffffff16146105c4576040517f08c379a00000000000000000000000000000000000000000000000000000000081526004016105bb90612147565b60405180910390fd5b60011515600a60009054906101000a900460ff1615150361062b576000600a60006101000a81548160ff02191690831515021790555042600d819055506000600c54600d546106139190611f9b565b9050600554816106239190612167565b600581905550505b565b6060600060016003546106409190611f9b565b67ffffffffffffffff81111561065957610658611fcf565b5b60405190808252806020026020018201604052801561069257816020015b61067f61177c565b8152602001906001900390816106775790505b5090506000600190505b60035481101561092b57600960008281526020019081526020016000206040518060e00160405290816000820180546106d49061202d565b80601f01602080910402602001604051908101604052809291908181526020018280546107009061202d565b801561074d5780601f106107225761010080835404028352916020019161074d565b820191906000526020600020905b81548152906001019060200180831161073057829003601f168201915b505050505081526020016001820180546107669061202d565b80601f01602080910402602001604051908101604052809291908181526020018280546107929061202d565b80156107df5780601f106107b4576101008083540402835291602001916107df565b820191906000526020600020905b8154815290600101906020018083116107c257829003601f168201915b50505050508152602001600282015481526020016003820180546108029061202d565b80601f016020809104026020016040519081016040528092919081815260200182805461082e9061202d565b801561087b5780601f106108505761010080835404028352916020019161087b565b820191906000526020600020905b81548152906001019060200180831161085e57829003601f168201915b50505050508152602001600482015481526020016005820160009054906101000a900473ffffffffffffffffffffffffffffffffffffffff1673ffffffffffffffffffffffffffffffffffffffff1673ffffffffffffffffffffffffffffffffffffffff168152602001600682015481525050826001836108fc9190611f9b565b8151811061090d5761090c61205e565b5b602002602001018190525080806109239061208d565b91505061069c565b508091505090565b60008054906101000a900473ffffffffffffffffffffffffffffffffffffffff1673ffffffffffffffffffffffffffffffffffffffff163373ffffffffffffffffffffffffffffffffffffffff16146109c1576040517f08c379a00000000000000000000000000000000000000000000000000000000081526004016109b89061222f565b60405180910390fd5b60001515600a60009054906101000a900460ff16151514610a17576040517f08c379a0000000000000000000000000000000000000000000000000000000008152600401610a0e906122c1565b60405180910390fd5b4260055410610a5b576040517f08c379a0000000000000000000000000000000000000000000000000000000008152600401610a529061232d565b60405180910390fd5b60006001600354610a6c9190611f9b565b67ffffffffffffffff811115610a8557610a84611fcf565b5b604051908082528060200260200182016040528015610abe57816020015b610aab61177c565b815260200190600190039081610aa35790505b509050610ac961062d565b905080600181518110610adf57610ade61205e565b5b602002602001015160c0015181600081518110610aff57610afe61205e565b5b602002602001015160c001511115610b765780600081518110610b2557610b2461205e565b5b602002602001015160a00151600160006101000a81548173ffffffffffffffffffffffffffffffffffffffff021916908373ffffffffffffffffffffffffffffffffffffffff160217905550610bd7565b80600181518110610b8a57610b8961205e565b5b602002602001015160a00151600160006101000a81548173ffffffffffffffffffffffffffffffffffffffff021916908373ffffffffffffffffffffffffffffffffffffffff1602179055505b50565b60008054906101000a900473ffffffffffffffffffffffffffffffffffffffff1673ffffffffffffffffffffffffffffffffffffffff163373ffffffffffffffffffffffffffffffffffffffff1614610c68576040517f08c379a0000000000000000000000000000000000000000000000000000000008152600401610c5f906123bf565b60405180910390fd5b8142610c749190612167565b60048190555080600454610c889190612167565b6005819055506000600a60006101000a81548160ff0219169083151502179055505050565b600060011515600660003373ffffffffffffffffffffffffffffffffffffffff1673ffffffffffffffffffffffffffffffffffffffff16815260200190815260200160002060009054906101000a900460ff16151503610d42576040517f08c379a0000000000000000000000000000000000000000000000000000000008152600401610d399061242b565b60405180910390fd5b6012841015610d86576040517f08c379a0000000000000000000000000000000000000000000000000000000008152600401610d7d90612497565b60405180910390fd5b6040518060c0016040528087878080601f016020809104026020016040519081016040528093929190818152602001838380828437600081840152601f19601f820116905080830192505050505050508152602001858152602001600254815260200184848080601f016020809104026020016040519081016040528093929190818152602001838380828437600081840152601f19601f820116905080830192505050505050508152602001600081526020013373ffffffffffffffffffffffffffffffffffffffff168152506008600060025481526020019081526020016000206000820151816000019080519060200190610e859291906117cf565b5060208201518160010155604082015181600201556060820151816003019080519060200190610eb69291906117cf565b506080820151816004015560a08201518160050160006101000a81548173ffffffffffffffffffffffffffffffffffffffff021916908373ffffffffffffffffffffffffffffffffffffffff1602179055509050506001600660003373ffffffffffffffffffffffffffffffffffffffff1673ffffffffffffffffffffffffffffffffffffffff16815260200190815260200160002060006101000a81548160ff02191690831515021790555060026000815480929190610f769061208d565b91905055506001905095945050505050565b60001515600a60009054906101000a900460ff16151514610fde576040517f08c379a0000000000000000000000000000000000000000000000000000000008152600401610fd590612503565b60405180910390fd5b60011515600660003373ffffffffffffffffffffffffffffffffffffffff1673ffffffffffffffffffffffffffffffffffffffff16815260200190815260200160002060009054906101000a900460ff16151514611071576040517f08c379a00000000000000000000000000000000000000000000000000000000081526004016110689061256f565b60405180910390fd5b60006008600084815260200190815260200160002060040154146110ca576040517f08c379a00000000000000000000000000000000000000000000000000000000081526004016110c1906125db565b60405180910390fd5b3373ffffffffffffffffffffffffffffffffffffffff166008600084815260200190815260200160002060050160009054906101000a900473ffffffffffffffffffffffffffffffffffffffff1673ffffffffffffffffffffffffffffffffffffffff161461116e576040517f08c379a000000000000000000000000000000000000000000000000000000000815260040161116590612647565b60405180910390fd5b600060045414158015611182575060045442115b6111c1576040517f08c379a00000000000000000000000000000000000000000000000000000000081526004016111b8906126b3565b60405180910390fd5b4260055411611205576040517f08c379a00000000000000000000000000000000000000000000000000000000081526004016111fc9061271f565b60405180910390fd5b60026003541161124a576040517f08c379a00000000000000000000000000000000000000000000000000000000081526004016112419061278b565b60405180910390fd5b6003811061128d576040517f08c379a0000000000000000000000000000000000000000000000000000000008152600401611284906127f7565b60405180910390fd5b8060086000848152602001908152602001600020600401819055506009600082815260200190815260200160002060060160008154809291906112cf9061208d565b91905055505050565b60008054906101000a900473ffffffffffffffffffffffffffffffffffffffff1673ffffffffffffffffffffffffffffffffffffffff163373ffffffffffffffffffffffffffffffffffffffff1614611366576040517f08c379a000000000000000000000000000000000000000000000000000000000815260040161135d90612147565b60405180910390fd5b6001600a60006101000a81548160ff02191690831515021790555042600c81905550565b60011515600760003373ffffffffffffffffffffffffffffffffffffffff1673ffffffffffffffffffffffffffffffffffffffff16815260200190815260200160002060009054906101000a900460ff1615150361141d576040517f08c379a00000000000000000000000000000000000000000000000000000000081526004016114149061242b565b60405180910390fd5b6012831015611461576040517f08c379a000000000000000000000000000000000000000000000000000000000815260040161145890612889565b60405180910390fd5b60038054106114a5576040517f08c379a000000000000000000000000000000000000000000000000000000000815260040161149c906128f5565b60405180910390fd5b6040518060e0016040528088888080601f016020809104026020016040519081016040528093929190818152602001838380828437600081840152601f19601f82011690508083019250505050505050815260200186868080601f016020809104026020016040519081016040528093929190818152602001838380828437600081840152601f19601f82011690508083019250505050505050815260200184815260200183838080601f016020809104026020016040519081016040528093929190818152602001838380828437600081840152601f19601f82011690508083019250505050505050815260200160035481526020013373ffffffffffffffffffffffffffffffffffffffff168152602001600081525060096000600354815260200190815260200160002060008201518160000190805190602001906115ee9291906117cf565b50602082015181600101908051906020019061160b9291906117cf565b506040820151816002015560608201518160030190805190602001906116329291906117cf565b506080820151816004015560a08201518160050160006101000a81548173ffffffffffffffffffffffffffffffffffffffff021916908373ffffffffffffffffffffffffffffffffffffffff16021790555060c08201518160060155905050600360008154809291906116a49061208d565b91905055506001600760003373ffffffffffffffffffffffffffffffffffffffff1673ffffffffffffffffffffffffffffffffffffffff16815260200190815260200160002060006101000a81548160ff02191690831515021790555050505050505050565b600160009054906101000a900473ffffffffffffffffffffffffffffffffffffffff1681565b6040518060c001604052806060815260200160008152602001600081526020016060815260200160008152602001600073ffffffffffffffffffffffffffffffffffffffff1681525090565b6040518060e001604052806060815260200160608152602001600081526020016060815260200160008152602001600073ffffffffffffffffffffffffffffffffffffffff168152602001600081525090565b8280546117db9061202d565b90600052602060002090601f0160209004810192826117fd5760008555611844565b82601f1061181657805160ff1916838001178555611844565b82800160010185558215611844579182015b82811115611843578251825591602001919060010190611828565b5b5090506118519190611855565b5090565b5b8082111561186e576000816000905550600101611856565b5090565b600081519050919050565b600082825260208201905092915050565b60005b838110156118ac578082015181840152602081019050611891565b838111156118bb576000848401525b50505050565b6000601f19601f8301169050919050565b60006118dd82611872565b6118e7818561187d565b93506118f781856020860161188e565b611900816118c1565b840191505092915050565b6000602082019050818103600083015261192581846118d2565b905092915050565b600081519050919050565b600082825260208201905092915050565b6000819050602082019050919050565b600082825260208201905092915050565b600061197582611872565b61197f8185611959565b935061198f81856020860161188e565b611998816118c1565b840191505092915050565b6000819050919050565b6119b6816119a3565b82525050565b600073ffffffffffffffffffffffffffffffffffffffff82169050919050565b60006119e7826119bc565b9050919050565b6119f7816119dc565b82525050565b600060c0830160008301518482036000860152611a1a828261196a565b9150506020830151611a2f60208601826119ad565b506040830151611a4260408601826119ad565b5060608301518482036060860152611a5a828261196a565b9150506080830151611a6f60808601826119ad565b5060a0830151611a8260a08601826119ee565b508091505092915050565b6000611a9983836119fd565b905092915050565b6000602082019050919050565b6000611ab98261192d565b611ac38185611938565b935083602082028501611ad585611949565b8060005b85811015611b115784840389528151611af28582611a8d565b9450611afd83611aa1565b925060208a01995050600181019050611ad9565b50829750879550505050505092915050565b60006020820190508181036000830152611b3d8184611aae565b905092915050565b600081519050919050565b600082825260208201905092915050565b6000819050602082019050919050565b600060e0830160008301518482036000860152611b8e828261196a565b91505060208301518482036020860152611ba8828261196a565b9150506040830151611bbd60408601826119ad565b5060608301518482036060860152611bd5828261196a565b9150506080830151611bea60808601826119ad565b5060a0830151611bfd60a08601826119ee565b5060c0830151611c1060c08601826119ad565b508091505092915050565b6000611c278383611b71565b905092915050565b6000602082019050919050565b6000611c4782611b45565b611c518185611b50565b935083602082028501611c6385611b61565b8060005b85811015611c9f5784840389528151611c808582611c1b565b9450611c8b83611c2f565b925060208a01995050600181019050611c67565b50829750879550505050505092915050565b60006020820190508181036000830152611ccb8184611c3c565b905092915050565b600080fd5b600080fd5b611ce6816119a3565b8114611cf157600080fd5b50565b600081359050611d0381611cdd565b92915050565b60008060408385031215611d2057611d1f611cd3565b5b6000611d2e85828601611cf4565b9250506020611d3f85828601611cf4565b9150509250929050565b600080fd5b600080fd5b600080fd5b60008083601f840112611d6e57611d6d611d49565b5b8235905067ffffffffffffffff811115611d8b57611d8a611d4e565b5b602083019150836001820283011115611da757611da6611d53565b5b9250929050565b600080600080600060608688031215611dca57611dc9611cd3565b5b600086013567ffffffffffffffff811115611de857611de7611cd8565b5b611df488828901611d58565b95509550506020611e0788828901611cf4565b935050604086013567ffffffffffffffff811115611e2857611e27611cd8565b5b611e3488828901611d58565b92509250509295509295909350565b60008115159050919050565b611e5881611e43565b82525050565b6000602082019050611e736000830184611e4f565b92915050565b60008060008060008060006080888a031215611e9857611e97611cd3565b5b600088013567ffffffffffffffff811115611eb657611eb5611cd8565b5b611ec28a828b01611d58565b9750975050602088013567ffffffffffffffff811115611ee557611ee4611cd8565b5b611ef18a828b01611d58565b95509550506040611f048a828b01611cf4565b935050606088013567ffffffffffffffff811115611f2557611f24611cd8565b5b611f318a828b01611d58565b925092505092959891949750929550565b611f4b816119dc565b82525050565b6000602082019050611f666000830184611f42565b92915050565b7f4e487b7100000000000000000000000000000000000000000000000000000000600052601160045260246000fd5b6000611fa6826119a3565b9150611fb1836119a3565b925082821015611fc457611fc3611f6c565b5b828203905092915050565b7f4e487b7100000000000000000000000000000000000000000000000000000000600052604160045260246000fd5b7f4e487b7100000000000000000000000000000000000000000000000000000000600052602260045260246000fd5b6000600282049050600182168061204557607f821691505b60208210810361205857612057611ffe565b5b50919050565b7f4e487b7100000000000000000000000000000000000000000000000000000000600052603260045260246000fd5b6000612098826119a3565b91507fffffffffffffffffffffffffffffffffffffffffffffffffffffffffffffffff82036120ca576120c9611f6c565b5b600182019050919050565b7f796f7520617265206e6f742066726f6d20656c656374696f6e20636f6d6d697360008201527f696f6e0000000000000000000000000000000000000000000000000000000000602082015250565b600061213160238361187d565b915061213c826120d5565b604082019050919050565b6000602082019050818103600083015261216081612124565b9050919050565b6000612172826119a3565b915061217d836119a3565b9250827fffffffffffffffffffffffffffffffffffffffffffffffffffffffffffffffff038211156121b2576121b1611f6c565b5b828201905092915050565b7f596f7520617265206e6f742066726f6d20656c656374696f6e20636f6d6d697360008201527f696f6e0000000000000000000000000000000000000000000000000000000000602082015250565b600061221960238361187d565b9150612224826121bd565b604082019050919050565b600060208201905081810360008301526122488161220c565b9050919050565b7f666972737420636f6e74696e756520766f74696e67207468617420686173206260008201527f65656e2073746f70706564000000000000000000000000000000000000000000602082015250565b60006122ab602b8361187d565b91506122b68261224f565b604082019050919050565b600060208201905081810360008301526122da8161229e565b9050919050565b7f766f74696e6720697320676f696e67206f6e0000000000000000000000000000600082015250565b600061231760128361187d565b9150612322826122e1565b602082019050919050565b600060208201905081810360008301526123468161230a565b9050919050565b7f596f7520617265206e6f742066726f6d20456c656374696f6e20436f6d6d697360008201527f696f6e0000000000000000000000000000000000000000000000000000000000602082015250565b60006123a960238361187d565b91506123b48261234d565b604082019050919050565b600060208201905081810360008301526123d88161239c565b9050919050565b7f596f75206861766520616c726561647920726567697374657264000000000000600082015250565b6000612415601a8361187d565b9150612420826123df565b602082019050919050565b6000602082019050818103600083015261244481612408565b9050919050565b7f596f7520617265206e6f7420656c696769626c6520746f20766f746500000000600082015250565b6000612481601c8361187d565b915061248c8261244b565b602082019050919050565b600060208201905081810360008301526124b081612474565b9050919050565b7f566f74696e67206973206f766572000000000000000000000000000000000000600082015250565b60006124ed600e8361187d565b91506124f8826124b7565b602082019050919050565b6000602082019050818103600083015261251c816124e0565b9050919050565b7f796f7520617265206e6f74207265676973746572656400000000000000000000600082015250565b600061255960168361187d565b915061256482612523565b602082019050919050565b600060208201905081810360008301526125888161254c565b9050919050565b7f596f75206861766520616c726561647920766f74656400000000000000000000600082015250565b60006125c560168361187d565b91506125d08261258f565b602082019050919050565b600060208201905081810360008301526125f4816125b8565b9050919050565b7f596f7520617265206e6f74206120766f74657200000000000000000000000000600082015250565b600061263160138361187d565b915061263c826125fb565b602082019050919050565b6000602082019050818103600083015261266081612624565b9050919050565b7f566f74696e6720686173206e6f74207374617274656400000000000000000000600082015250565b600061269d60168361187d565b91506126a882612667565b602082019050919050565b600060208201905081810360008301526126cc81612690565b9050919050565b7f766f74696e67206973206f766572000000000000000000000000000000000000600082015250565b6000612709600e8361187d565b9150612714826126d3565b602082019050919050565b60006020820190508181036000830152612738816126fc565b9050919050565b7f546865726520617265206e6f2063616e6469646174657320746f20766f746500600082015250565b6000612775601f8361187d565b91506127808261273f565b602082019050919050565b600060208201905081810360008301526127a481612768565b9050919050565b7f43616e64696461746520646f6573206e6f742065786973740000000000000000600082015250565b60006127e160188361187d565b91506127ec826127ab565b602082019050919050565b60006020820190508181036000830152612810816127d4565b9050919050565b7f596f7520617265206e6f7420656c696769626c6520746f20626520612063616e60008201527f6469646174650000000000000000000000000000000000000000000000000000602082015250565b600061287360268361187d565b915061287e82612817565b604082019050919050565b600060208201905081810360008301526128a281612866565b9050919050565b7f526567697374726174696f6e2069732066756c6c000000000000000000000000600082015250565b60006128df60148361187d565b91506128ea826128a9565b602082019050919050565b6000602082019050818103600083015261290e816128d2565b905091905056fea2646970667358221220f2d11359c3ce7c062fb1e02aaf188eae037f47fdfcac886e72abec8262b474cf64736f6c634300080e0033",
  "immutableReferences": {},
  "source": "// SPDX-License-Identifier: MIT\r\npragma solidity >=0.5.0 <0.9.0;\r\n\r\n\r\n\r\ncontract Vote {\r\n    address electionCommission;\r\n    address public winner;\r\n    struct Voter {\r\n        string name;\r\n        uint256 age;\r\n        uint256 voterId;\r\n        string gender;\r\n        uint256 voteCandidateId;\r\n        address voterAddress;\r\n    }\r\n\r\n    struct Candidate {\r\n        string name;\r\n        string party;\r\n        uint256 age;\r\n        string gender;\r\n        uint256 candidateId;\r\n        address candidateAddress;\r\n        uint256 votes;\r\n    }\r\n\r\n    uint256 nextVoterId = 1;\r\n    uint256 nextCandidateId = 1;\r\n    uint256 startTime;\r\n    uint256 endTime;\r\n    mapping (address=> bool) isVoter;\r\n    mapping(address=> bool) isCandidate;\r\n    mapping(uint256 => Voter) voterDetails;\r\n    mapping(uint256 => Candidate) candidateDetails;\r\n    bool stopVoting=true;\r\n    Voter[] private voteArr;\r\n    uint x;\r\n    uint y;\r\n\r\n\r\n    constructor() {\r\n        electionCommission = msg.sender;\r\n    }\r\n\r\n    modifier isVotingOver() {\r\n        require(stopVoting==false , \"Voting is over\");\r\n        _;\r\n    }\r\n\r\n    \r\n        \r\n    function voterRegister(\r\n        string calldata _name,\r\n        uint256 _age,\r\n        string calldata _gender\r\n    ) external returns (bool) {\r\n        require(isVoter[msg.sender]!=true, \"You have already registerd\");\r\n        require(_age >= 18, \"You are not eligible to vote\");\r\n        voterDetails[nextVoterId] = Voter(\r\n            _name,\r\n            _age,\r\n            nextVoterId,\r\n            _gender,\r\n            0,\r\n            msg.sender\r\n        );\r\n        isVoter[msg.sender]=true;\r\n        nextVoterId++;\r\n        return true;\r\n    }\r\n\r\n    function vote(uint256 _voterId, uint256 _id) external isVotingOver {\r\n        require(isVoter[msg.sender]==true,\"you are not registered\");\r\n\r\n        require(\r\n            voterDetails[_voterId].voteCandidateId == 0,\r\n            \"You have already voted\"\r\n        );\r\n        require(\r\n            voterDetails[_voterId].voterAddress == msg.sender,\r\n            \"You are not a voter\"\r\n        );\r\n        \r\n        require(startTime != 0 && block.timestamp>startTime, \"Voting has not started\");\r\n        require(endTime>block.timestamp, \"voting is over\");\r\n        require(nextCandidateId > 2, \"There are no candidates to vote\");\r\n        require(_id < 3, \"Candidate does not exist\");\r\n        voterDetails[_voterId].voteCandidateId = _id;\r\n        candidateDetails[_id].votes++;\r\n    }\r\n\r\n    function candidateRegister(\r\n        string calldata _name,\r\n        string calldata _party,\r\n        uint256 _age,\r\n        string calldata _gender\r\n    ) external {\r\n        require(\r\n            isCandidate[msg.sender]!=true,\r\n            \"You have already registerd\"\r\n        );\r\n        require(_age >= 18, \"You are not eligible to be a candidate\");\r\n        require(nextCandidateId < 3, \"Registration is full\");\r\n        candidateDetails[nextCandidateId] = Candidate(\r\n            _name,\r\n            _party,\r\n            _age,\r\n            _gender,\r\n            nextCandidateId,\r\n            msg.sender,\r\n            0\r\n        );\r\n        nextCandidateId++;\r\n        isCandidate[msg.sender]=true;\r\n    }\r\n\r\n    function result() external {\r\n        require(\r\n            msg.sender == electionCommission,\r\n            \"You are not from election commision\"\r\n        );\r\n        require(stopVoting==false,\"first continue voting that has been stopped\");\r\n        require(endTime<block.timestamp,\"voting is going on\");\r\n        //require - for timings\r\n        //require- emergency\r\n        //require- to check whether candidates have registered for this or not\r\n        Candidate[] memory arr = new Candidate[](nextCandidateId - 1);\r\n        arr = candidateList();\r\n\r\n        if (arr[0].votes > arr[1].votes) {\r\n            winner = arr[0].candidateAddress;\r\n        } else {\r\n            winner = arr[1].candidateAddress;\r\n        }\r\n    }\r\n\r\n    function candidateList() public view returns (Candidate[] memory) {\r\n        Candidate[] memory arr = new Candidate[](nextCandidateId - 1);\r\n\r\n        for (uint256 i = 1; i < nextCandidateId; i++) {\r\n            arr[i - 1] = candidateDetails[i];\r\n        }\r\n        return arr;\r\n    }\r\n\r\n    function voterList() external view returns (Voter[] memory) {\r\n        Voter[] memory arr = new Voter[](nextVoterId - 1);\r\n        for (uint256 i = 1; i < nextVoterId; i++) {\r\n            arr[i - 1] = voterDetails[i];\r\n        }\r\n        return arr;\r\n    }\r\n\r\n    function voteTime(uint256 _startTime, uint256 _endTime) external {\r\n        require(\r\n            msg.sender == electionCommission,\r\n            \"You are not from Election Commision\"\r\n        );\r\n        startTime = block.timestamp + _startTime;\r\n        endTime = startTime + _endTime;\r\n        stopVoting = false;\r\n    }\r\n\r\n    function votingStatus() public view returns (string memory) {\r\n        if (startTime == 0) {\r\n            return \"Not Started\";\r\n        } else if (\r\n            (startTime != 0 && endTime > block.timestamp) && stopVoting == false\r\n        ) {\r\n            return \"In progress\";\r\n        } else {\r\n            return \"Ended\";\r\n        }\r\n    }\r\n\r\n    function emergency() public {\r\n        require(msg.sender==electionCommission,\"you are not from election commision\");\r\n        stopVoting = true;\r\n        x=block.timestamp;\r\n    }\r\n    function freeEmergency() public{\r\n        require(msg.sender==electionCommission,\"you are not from election commision\");\r\n        if(stopVoting==true)\r\n        {\r\n            stopVoting=false;\r\n            y=block.timestamp;\r\n            uint a=y-x;\r\n            endTime=a+endTime;\r\n        }\r\n    }\r\n}\r\n\r\n\r\n\r\n// Candidate Registration Page\r\n// Candidate Login Page\r\n// Voter Registration Page\r\n// Voter Login Page\r\n",
  "sourcePath": "C:\\Users\\BANGLADESH\\Desktop\\voting application\\Vstarter\\contracts\\Voting.sol",
  "compiler": {
    "name": "solc",
    "version": "0.8.14+commit.80d49f37.Emscripten.clang"
  },
  "schemaVersion": "3.4.11",
  "updatedAt": "2023-02-18T08:01:15.118Z",
  "networkType": "ethereum",
  "devdoc": {
    "kind": "dev",
    "methods": {},
    "version": 1
  },
  "userdoc": {
    "kind": "user",
    "methods": {},
    "version": 1
  }
}